:1000000012C021C075C21FC01FC01DC01CC01BC0B4
:100010001AC04BC018C017C016C015C014C013C0FA
:1000200012C011C010C011241FBECFE5D4E0DEBF46
:10003000CDBF20E0A0E6B0E001C01D92AE37B20710
:10004000E1F7BBD574C6DCCF1F920F920FB60F92AB
:1000500011248F939F93AF93BF9384B58B5D84BD21
:10006000809169008F5F80936900809169008111A0
:1000700013C08091700090917100A0917200B091B6
:1000800073000196A11DB11D8093700090937100C3
:10009000A0937200B0937300BF91AF919F918F9125
:1000A0000F900FBE0F901F9018951F920F920FB6D2
:1000B0000F9211242F933F934F935F936F937F93EE
:1000C0008F939F93AF93BF93EF93FF9380916200C1
:1000D000811146C081E487B9369A349BFECF349AA9
:1000E00024B185B190E0982F8827820F911D9093BD
:1000F0007D0080937C0080917C0090917D0088350C
:100100009240BCF480916100813099F48091660046
:10011000909167000196909367008093660010921B
:10012000610080917C0090917D008D3B924064F451
:1001300017C080917C0090917D008D3B924084F0AF
:100140008091610081110CC08091660090916700E0
:100150000196909367008093660081E08093610030
:1001600080916200813009F046C080E487B9369AF8
:10017000349BFECF349A24B185B190E0982F882724
:10018000820F911D90937B0080937A0080917A007A
:1001900090917B008A389240BCF48091600081305D
:1001A00099F480917800909179000196909379006C
:1001B000809378001092600080917A0090917B008B
:1001C0008F3E924064F417C080917A0090917B003A
:1001D0008F3E924084F08091600081110CC080912C
:1001E000780090917900019690937900809378003F
:1001F00081E080936000809162008230F9F483E4B2
:1002000087B9369A349BFECF349A24B185B190E0F9
:10021000982F8827820F911D90936D0080936C001A
:1002200080916C0090916D0020916E0030916F0074
:10023000821B930B90936B0080936A008091620005
:10024000833039F582E487B9369A349BFECF349AED
:1002500084B1A5B1B0E0BA2FAA27A80FB11D20EA3A
:1002600030E016D524E630E040E050E0F5D430939D
:100270006F0020936E0080916C0090916D00209132
:100280006E0030916F00821B930B90936B008093F4
:100290006A0080EE82BF809162008F5F843018F424
:1002A0008093620002C010926200FF91EF91BF91B3
:1002B000AF919F918F917F916F915F914F913F91FE
:1002C0002F910F900FBE0F901F9018958091700086
:1002D00090917100A0917200B0917300209169001B
:1002E000BA2FA92F982F8827BC01CD01620F711D4D
:1002F000811D911D24E230E040E050E08BD4CA0122
:10030000B90108959C01992324F422273327281B3F
:10031000390B3BBD2ABD9B01772324F422273327C9
:10032000261B370B39BD28BD1816190624F422B335
:100330002F7C206222BB992324F422B32F7C2061DE
:1003400022BB892B19F482B38F7C82BB1616170649
:1003500024F488B38F7C806288BB772324F488B32D
:100360008F7C806188BB672B19F488B38F7C88BB36
:100370000895811103C0C09892980AC0813019F481
:10038000C09A92980895833019F4C09A929A089569
:10039000823011F4C09A929A089522B32F7B30E4F0
:1003A000839FC0011124822B82BB0895811112C04A
:1003B000611108C0A998611115C0A898811112C0D7
:1003C000979A0895979894B3936094BB95B393606C
:1003D00095BBF0CF979894B3936094BB95B393601B
:1003E00095BBE9CF089589E785BD81E983BD89B7CC
:1003F000806489BF1BB81AB896E890BD8FEC89B9A4
:100400008FE387BB84EF81BB81EA8FBD82E08EBD25
:1004100083B7846083BF89B7816089BF80EE82BF64
:1004200096B960E080E0C2DF979A81E0B6DF81E0B4
:10043000A0DF60E070E080E090E064DF78940895F1
:1004400013BE28E02AB907C05D9BFECFFC012191B5
:10045000CF012CB96150662319F05D9BF5CFF6CF23
:100460005E9BFECF9EEF04C08150F1F7915011F0DA
:100470008EEFFACF84E083BF08950F931F93CF933D
:10048000DF9300D000D000D0CDB7DEB713BE4AE076
:100490008E010F5F1F4FB80117D4F80101900020A3
:1004A000E9F73197BF01601B710BC801C9DF84E018
:1004B00083BF26960FB6F894DEBF0FBECDBFDF9187
:1004C000CF911F910F9108958130910559F41092A9
:1004D000680093988B9885B7837F85BF8BB78068BA
:1004E0008BBF0895892B19F48BB78F778BBF089535
:1004F0001F920F920FB60F9211242F933F934F9399
:100500005F936F937F938F939F93AF93BF93EF937B
:10051000FF9381E08093680080E090E0D5DFFF9159
:10052000EF91BF91AF919F918F917F916F915F916B
:100530004F913F912F910F900FBE0F901F901895E4
:1005400090916900890F909169008913FCCF0895FB
:10055000CF93DF9300D0CDB7DEB713BE85EC87B95C
:1005600084E6EEDF369A349BFECF349A24B185B10F
:1005700090E0982F8827820F911D9A83898384E0C9
:1005800083BF89819A810F900F90DF91CF91089559
:10059000CF93DF9313BE8B9A939A84E487B985E057
:1005A000CFDF369A349BFECF349AD4B1C5B193983D
:1005B0008B9884E6C5DF84E083BF2C2F30E0322F98
:1005C00022272D0F311D032E000C440B550B60E02C
:1005D00070E48CE990E040D3205137424109510941
:1005E000AFE3B0E05BD368577C4E8F4F9F4F20E165
:1005F00037E240E050E030D3822FDF91CF91089571
:100600000F931F93CF93DF93181619064CF48C01A8
:10061000C0E0D0E084E294DF21960C171D07D1F7EB
:10062000DF91CF911F910F91089560E070E080E01D
:1006300090E068DE02C082E09CDEAADF8111FBCF81
:1006400081E090E041DF8091680081110EC082E07E
:1006500090DE84EF91E0D4DF80E08BDE84EF91E0E8
:10066000CFDF80916800882391F38AEF90E0C8DFA4
:1006700081E090E029CF08956F927F928F929F92B0
:10068000AF92BF92CF92DF92EF92FF920F931F93A0
:10069000CF93DF934C016B018CEE88168FEF980699
:1006A00031F480E090E010DF1092680003C081E038
:1006B00090E00ADF24E630E0D401EAD22EE031E017
:1006C00040E050E0C9D27901332324F4EE24FF2422
:1006D000E21AF30A109267001092660010927900F5
:1006E0001092780080916600909167008E159F05AA
:1006F0000CF044C08601E601560188E2A81AB10850
:100700006C2C7D2C8EE1C81AD108209166003091A6
:1007100067008091780090917900821793071CF40C
:10072000E501062D172D20917800309179008091F8
:10073000660090916700821793071CF48601C62D0E
:10074000D72D992054F466277727601B710B8827D3
:1007500099278C1B9D0BD6DD03C0B801CE01D2DDDD
:1007600080916800811161DF8AE090E049DF80912B
:100770006600909167008E159F053CF260E070E086
:1007800080E090E0BFDD88EC90E03ADFDF91CF9130
:100790001F910F91FF90EF90DF90CF90BF90AF909F
:1007A0009F908F907F906F9008958F929F92AF92BD
:1007B000BF92CF92DF92EF92FF920F931F93CF934E
:1007C000DF934C017B0181E090E07EDED401992033
:1007D00024F4AA27BB27A819B90921EA30E058D286
:1007E00020E931E040E050E037D269011092670023
:1007F0001092660010927900109278008091660045
:1008000090916700821793070CF040C08701E701C1
:1008100057018AE0A81AB1088AE0E80EF11C20917D
:10082000660030916700809178009091790082177E
:10083000930714F4E5018701209178003091790045
:1008400080916600909167008217930714F4E70186
:10085000850199203CF4B801882799278C1B9D0BB2
:1008600051DD06C066277727601B710BCE014ADD7C
:10087000809168008111D9DE8AE090E0C1DE80912C
:100880006600909167008C159D054CF260E070E069
:1008900080E090E037DD88EC90E0B2DEDF91CF9130
:1008A0001F910F91FF90EF90DF90CF90BF90AF908E
:1008B0009F908F9008958F929F92AF92BF92CF9208
:1008C000DF92EF92FF921F93CF93DF936DE770E07B
:1008D00085E590E017DDFADC6B017C014B015C01E2
:1008E000C1E011E0D0E02CC0F1DC6C157D058E0577
:1008F0009F05D0F322E3C20ED11CE11CF11C8091B4
:100900006C0090916D00813991406CF0C13059F4C8
:1009100080916400909165000196909365008093AA
:100920006400CD2F0DC0C1110BC080916C0090915F
:100930006D00883C910524F4C9DC4B015C01C12F9A
:10094000C5DCDC01CB0188199909AA09BB098935E5
:100950009240A105B10540F260E070E080E090E0D7
:10096000D1DC84E080936300DF91CF911F91FF90F1
:10097000EF90DF90CF90BF90AF909F908F900895B1
:1009800060E070E080E090E0BDDC64E670E086EA64
:100990009FEF0BDF80916E0090916F008139914045
:1009A0003CF480916C0090916D00813991401CF075
:1009B00010926300089564E670E084EB90E0F5DE49
:1009C00080916E0090916F00813991403CF480914C
:1009D0006C0090916D00813991401CF01092630081
:1009E000089583E08093630064E670E086EA9FEFF9
:1009F000DCCE089580916C0090916D00883C91054B
:100A0000ECF480916E0090916F00883C9105B4F4F5
:100A100066E970E088E290E02FDE84E690E0F0DDA9
:100A200080916C0090916D00883C91053CF4809120
:100A30006E0090916F00883C910554F31092630012
:100A40000895CF93DF93809164009091650018160C
:100A50001906C4F4C0E0D0E061E081E0A7DCCE017B
:100A60000CDD88EE93E0CCDD60E080E09FDC88EE7A
:100A700093E0C6DD21968091640090916500C817CF
:100A8000D90754F3019721F485E08093630003C0F4
:100A900082E0809363001092650010926400DF9101
:100AA000CF91089566E970E08CEE9FEFE5DD68E791
:100AB00070E080E590E079DE66E970E08CE291E03C
:100AC000DBDD68E770E080EB9FEF6FDE66E970E0EA
:100AD0008CE291E0D1DD68E770E080EB9FEF65DEAE
:100AE00066E970E08CE291E0C7DD68E770E080E5E0
:100AF00090E05BDE10926300089580916C0090910D
:100B00006D00892B31F480916E0090916F000097F9
:100B100091F020916C0030916D0080916E00909169
:100B20006F00820F931F31E020E0803991400CF07C
:100B300030E0832F922F08952BC080916A0090910E
:100B40006B0099239CF480916A0090916B00863A27
:100B50009F4F34F46AE67FEF84E690E0D3DB18C061
:100B600064E670E088E790E0CDDB12C080916A0017
:100B700090916B008B35910534F064E670E08AE665
:100B80009FEFC0DB05C06CE870E084E690E0BADB64
:100B900080916800811103C0B0DF892B71F28091D0
:100BA0006800882319F086E080936300A6DF892B14
:100BB00019F081E080936300089515DC80ED97E0E3
:100BC0001FDDC6DC5ADC8CE69EEF57DC81E090E04E
:100BD0007BDC19C0823081F028F4882349F0813011
:100BE00049F013C0843061F048F0863059F00DC0F0
:100BF000A3DF09C0C5DE07C0FDDE05C05CDE03C0A3
:100C000020DF01C04FDF80916300853019F780E05D
:100C100090E00895A1E21A2EAA1BBB1BFD010DC096
:100C2000AA1FBB1FEE1FFF1FA217B307E407F5079C
:100C300020F0A21BB30BE40BF50B661F771F881F78
:100C4000991F1A9469F760957095809590959B010E
:100C5000AC01BD01CF010895052E97FB16F4009459
:100C60000FD057FD05D0D6DF07FC02D046F408C0F0
:100C700050954095309521953F4F4F4F5F4F0895C8
:100C800090958095709561957F4F8F4F9F4F0895F8
:100C90000FD0B7FF0895821B930B089509D0A59F2D
:100CA000900DB49F900DA49F800D911D1124089567
:100CB000A29FB001B39FC001A39F01D0B29F700D4E
:100CC000811D1124911D0895BB274A3031F49923C9
:100CD00022F4BDE2909581959F4F01C0BB27FB0197
:100CE0005527AA27880F991FAA1FA41710F0A41B25
:100CF00083955051B9F7A05DAA3308F0A95DA1937F
:100D0000009779F7B111B1931192CB0100C0DC01CA
:100D1000FC01672F71917723E1F7329704C07C9132
:100D20006D9370836291AE17BF07C8F30895F8946E
:020D3000FFCFF3
:00000001FF
