S013000052756E417375726F52756E2E737265639D
S113000012C02CC02BC07AC12DC128C027C026C065
S113001025C024C023C022C021C020C09DC11EC051
S11300201DC01CC01BC011241FBECFE5D4E0DEBF21
S1130030CDBF10E0A0E6B0E0E0E4F0E102C005903E
S11300400D92AA38B107D9F720E0AAE8B0E001C0C0
S11300501D92AA3CB207E1F797D5F0C7D1CFCF9351
S1130060DF93EC0160E070E083E090E00CD09983D2
S1130070888360E070E082E090E005D09B838A830F
S1130080DF91CF910895CF93DF93EC016115710552
S113009011F0862F23D3F894CC0FDD1FC355DF4F07
S11300A08881998178940024880F991F001C880FF7
S11300B0991F001C892F902DDF91CF910895CF9324
S11300C0DF9324B185B130E0382B80918E0090917C
S11300D08F00FC01EE0FFF1FE355FF4F3183208398
S11300E04091BD005091BE00452B09F441C08230BF
S11300F09105F4F5432F5527DC01AA0FBB1FED0131
S1130100C657DF4FE881F981BA016E1B7F0B7595E5
S11301106795759567956E0F7F1F79836883A05ADD
S1130120BF4FED91FC91461B570B4E9FB0014F9F63
S1130130700D5E9F700D112463307105CCF0DC01ED
S113014041E0A427AA0FBB1FA154BF4F4D915C915E
S113015011974F5F5F4F11965C934E93DC01AA0F8A
S1130160BB1FA05ABF4FF195E195F109ED93FC93A4
S113017084309105A9F44091B9005091BA00452BFF
S113018049F451E040E020383C4F08F050E0252F7E
S1130190342F02C021E030E03093BA002093B9003C
S11301A0FC01E859FF4F808187B940918E0050913E
S11301B08F004F5F5F4F9A01ABEABAEAF0D696958B
S11301C08795969587959C01220F331F820F931F65
S11301D0880F991F481B590B50938F0040938E0032
S11301E0DF91CF91089589E785BD89B7806489BF80
S11301F081E983BD10BC8FEC89B988E18AB986E8AE
S113020080BD8FE387BB8CEF81BB81EA8FBD82E029
S11302108EBD80E0A2D161E081E0A8D160E080E001
S1130220A5D181E086D1939A60E280E2DFD160E0DB
S113023080E0D5D11092BE001092BD001092C5008E
S11302401092C4008FE590E09093BC008093BB00B3
S113025084B38C7F84BB979A81E687B98FEE86B985
S1130260789408951F920F920FB60F9211242F9332
S11302703F934F935F936F937F938F939F93AF932A
S1130280BF93EF93FF9384B58B5D84BD8091C300CE
S11302908F5F8093C3008091C300811113C080914C
S11302A0C6009091C700A091C800B091C900019602
S11302B0A11DB11D8093C6009093C700A093C800F0
S11302C0B093C9008091C4009091C500892B29F096
S11302D0E091C400F091C5000995FF91EF91BF91A1
S11302E0AF919F918F917F916F915F914F913F91CA
S11302F02F910F900FBE0F901F9018951F920F9281
S11303000FB60F9211248F939F93AF93BF93809155
S1130310C3008F5F8093C3008091C300811113C019
S11303208091C6009091C700A091C800B091C90007
S11303300196A11DB11D8093C6009093C700A093A0
S1130340C800B093C900BF91AF919F918F910F9056
S11303500FBE0F901F9018951F920F920FB60F9219
S113036011242F933F934F935F936F937F938F93B6
S11303709F93AF93BF93EF93FF93E091BB00F091F2
S1130380BC000995FF91EF91BF91AF919F918F911F
S11303907F916F915F914F913F912F910F900FBE7D
S11303A00F901F9018956F927F928F929F92AF92A9
S11303B0BF92CF92DF92EF92FF920F931F93CF934E
S11303C0DF93EC018B013A0160E080E008D12097D3
S11303D0D9F0DE01DD2324F4AA27BB27AC1BBD0B17
S11303E020E137E2E8D523EA3BE440E050E099D548
S11303F049015A01DD2324F460E180E1F7D01EC0F5
S113040060E280E2F3D01AC0D801112324F4AA27B1
S1130410BB27A01BB10B21EB30E0CDD528E631E0A2
S113042040E050E07ED549015A01112324F460E2F2
S113043080E1DCD003C060E180E2D8D060E070E00D
S113044080E090E06FD0662D862DC9D08114910490
S1130450A104B10409F442C06301E301E12CF12CCD
S11304600FEB10E0F80180819181E80EF91E808184
S1130470918122813381821B930B1816190664F42F
S11304806C167D0624F0F5EFCF16D10414F02A97EC
S113049003C02AE0C20ED11C99235CF46C147D04C1
S11304A01CF0C53FD10524F08AE0C81AD10801C068
S11304B02A9660E070E080E090E034D06C2D8C2FC0
S11304C08ED081E090E012D1C7010F2C000CAA0B52
S11304D0BB0B88159905AA05BB0520F260E080E0F6
S11304E085D088EC90E002D1DF91CF911F910F91DC
S11304F0FF90EF90DF90CF90BF90AF909F908F9040
S11305007F906F900895F89481E090E09093BE00FE
S11305108093BD00EFEBF0E011821082138212820F
S113052078940895EFEBF0E0918380837383628382
S11305300895811103C0C09892980AC0813019F4BB
S1130540C09A92980895833019F4C09A929A0895A3
S1130550823011F4C098929A089522B32F7B30E42C
S1130560839FC0011124822B82BB089581110FC087
S1130570611105C0A998611112C0A89808959798AF
S113058084B3836084BB85B3836085BBF3CF9798C2
S113059084B3836084BB85B3836085BBECCF08954B
S11305A0CF93DF93D82FC62F88231CF4D19580E1F5
S11305B001C080E2D11101C080E0CC231CF4C195BC
S11305C060E101C060E2C11101C060E00FD06C2F96
S11305D0660F8D2F880F03D0DF91CF91089590E09F
S11305E09BBD8ABD70E079BD68BD089592B39F7CC0
S11305F0892B82BB88B38F7C682B68BB089598E0F5
S11306009AB95E9A5D9BFECF8CB95E9BFECF1AB8F9
S113061008950F931F93CF93FC018081882351F099
S11306208F01C0E0CF5FEBDFF801EC0FF11D80819B
S11306308111F8CFCF911F910F910895CF93DF933C
S1130640CDB7DEB727970FB6F894DEBF0FBECDBF88
S11306504AE0BE016F5F7F4FBED4CE010196D9DF61
S113066027960FB6F894DEBF0FBECDBFDF91CF91B2
S113067008958091B9009091BA00892B19F16FE027
S113068070E084E090E0FFDC823F23E09207E0F436
S11306909C0140E050E060E070E48CE990E063D4B9
S11306A02051374241095109AEE3B0E08AD468577A
S11306B07C4E8F4F9F4F20E137E240E050E053D40F
S11306C0822F089580E0089580E00895F8941092B0
S11306D0BA001092B9007894089508959091C300D7
S11306E0890F9091C3008913FCCF08950F931F9332
S11306F0CF93DF93009749F08C01C0E0D0E084E20F
S1130700EDDF21960C171D07D1F7DF91CF911F91D3
S11307100F910895CF93DF9300D000D0CDB7DEB70B
S113072085ED9DEF8BDFCE01019699DC46E950E023
S113073066EA7FEF80E090E036DE88EE93E0D6DF75
S1130740CE0101968CDC809166009091670029812E
S11307503A818217930728F02B813C8182179307F3
S1130760C8F41092AC001092A4001092A50010924C
S1130770A6001092A7001092A8001092A90010924F
S1130780AA001092AB0060E081E0F0DE88EE93E016
S1130790ADDF47C046E950E064EB70E080E090E0F4
S11307A002DE88EE93E0A2DFCE01019658DC809150
S11307B066009091670029813A818217930728F097
S11307C02B813C8182179307C8F41092AC001092DD
S11307D0A4001092A5001092A6001092A7001092F7
S11307E0A8001092A9001092AA001092AB0061E038
S11307F080E0BCDE88EE93E079DF13C046E950E088
S113080066EA7FEF80E090E0CEDD88EE93E06EDF75
S113081083E08093AC0061E081E0A8DE88EE93E0A1
S113082065DF0F900F900F900F90DF91CF91089597
S1130830CF93DF9380919000909191001816190640
S1130840C4F4C0E0D0E061E081E090DECE01F6DEE9
S113085088EE93E04BDF60E080E088DE88EE93E092
S113086045DF21968091900090919100C817D90797
S113087054F3019721F485E08093AC0003C082E037
S11308808093AC001092910010929000DF91CF9170
S1130890089561E080E06ADE6CE98CE981DE84EF32
S11308A091E024DF1092AC0018DF1092BA0010928D
S11308B0B9001092A8001092A9001092AA001092F8
S11308C0AB001092A4001092A5001092A600109202
S11308D0A70008958F929F92AF92BF92CF92DF921A
S11308E0EF92FF92CF93DF93EC01892B29F0C1158E
S11308F084E0D80759F014C08FEF9FEF9FDE60E2C9
S113090080E174DE66E984E66ADEC0C08EEF9FEFA4
S113091095DE60E180E26ADE64E686E960DEB6C008
S11309208DEF9FEF8BDEBE01DD0F880B990BE2D1BB
S11309306B017C016091640070916500072E000CCE
S1130940880B990BD7D19B01AC01C701B60136D1F5
S11309506B017C016093A8007093A9008093AA00A6
S11309609093AB0080E090E0A0E0BFE380939C0014
S113097090939D00A0939E00B0939F0080E090E030
S1130980A0E8BFE38093980090939900A0939A0005
S1130990B0939B002091A4003091A5004091A60043
S11309A05091A700C701B60109D14B015C0120E0B9
S11309B030E040E05FE3C701B60150D29B01AC01D7
S11309C0C501B401FCD04B015C016093A00070939D
S11309D0A1008093A2009093A300C092A400D0929F
S11309E0A500E092A600F092A70020E030E04CE5DC
S11309F052E430D218166CF480E090E0ACE5B2E436
S1130A008093A0009093A100A093A200B093A300B0
S1130A1015C020E030E04CE552ECC501B40133D1FF
S1130A20882364F480E090E0ACE5B2EC8093A0000D
S1130A309093A100A093A200B093A300C090A00043
S1130A40D090A100E090A200F090A30020E030E05C
S1130A5046E153E4C701B601B2D019D170939700AF
S1130A6060939600A701960160E070E086E193E44C
S1130A70A5D00DD1709395006093940060E280E25C
S1130A80B5DD6091940080919600A9DDDF91CF914E
S1130A90FF90EF90DF90CF90BF90AF909F908F909A
S1130AA00895CF93DF9300D000D0CDB7DEB781E0B7
S1130AB054DD85E690E0C2DDCE010196D0DA89816D
S1130AC09A81BCDD8CE790E0A4DD8B819C81B6DD4E
S1130AD082E890E09EDDCDDD882321F060E080E0B7
S1130AE05FDD4BC029813A81809166009091670057
S1130AF08217930778F44B815C818417950780F5FE
S1130B0086E69DEF9BDD81E08093AC0060E080E0B1
S1130B1047DD33C01092930010929200409164001C
S1130B20509165002417350728F54B815C818417A3
S1130B30950780F01FC080E094E090939300809329
S1130B40920008C0820F931F969587959093930007
S1130B50809392008091920090919300BBDE0DC02F
S1130B608B819C81409164005091650084179507A6
S1130B7048F7E1CF8B819C81E5CF0F900F900F90C8
S1130B800F90DF91CF9108952EDBBDDC9FDD0FC068
S1130B90813041F028F0843039F0863039F009C0D2
S1130BA080DF05C0B7DD03C043DE01C072DE809183
S1130BB0AC00853069F780E090E008955058BB2779
S1130BC0AA270ED00DC1FED030F003D120F031F4AD
S1130BD09F3F11F41EF4F3C00EF4E095E7FBE9C067
S1130BE0E92F0FD180F3BA176207730784079507BB
S1130BF018F071F49EF527C10EF4E0950B2EBA2F70
S1130C00A02D0B01B90190010C01CA01A00111240E
S1130C10FF27591B99F0593F50F4503E68F11A16BA
S1130C20F040A22F232F342F4427585FF3CF46954B
S1130C3037952795A795F0405395C9F77EF41F166D
S1130C40BA0B620B730B840BBAF09150A1F0FF0F37
S1130C50BB1F661F771F881FC2F70EC0BA0F621F23
S1130C60731F841F48F4879577956795B795F79513
S1130C709E3F08F0B3CF9395880F08F09927EE0FA5
S1130C8097958795089571D008F481E0089504D06C
S1130C906894B111D9C00895BCD088F09F5790F0E2
S1130CA0B92F9927B751A0F0D1F0660F771F881F8D
S1130CB0991F1AF0BA95C9F712C0B13081F0C3D0A8
S1130CC0B1E00895C0C0672F782F8827B85F39F046
S1130CD0B93FCCF3869577956795B395D9F73EF4EC
S1130CE090958095709561957F4F8F4F9F4F089594
S1130CF0E89409C097FB3EF49095809570956195B2
S1130D007F4F8F4F9F4F9923A9F0F92F96E9BB2767
S1130D109395F695879577956795B795F111F8CFE3
S1130D20FAF4BB0F11F460FF1BC06F5F7F4F8F4F4E
S1130D309F4F16C0882311F096E911C0772321F044
S1130D409EE8872F762F05C0662371F096E8862FDC
S1130D5070E060E02AF09A95660F771F881FDAF733
S1130D60880F9695879597F90895990F0008550F60
S1130D70AA0BE0E8FEEF16161706E807F907C0F01D
S1130D8012161306E407F50798F0621B730B840B25
S1130D90950B39F40A2661F0232B242B252B21F4FF
S1130DA008950A2609F4A140A6958FEF811D811D9F
S1130DB0089597F99F6780E870E060E008959FEFD9
S1130DC080EC089500240A941616170618060906DE
S1130DD0089500240A9412161306140605060895AD
S1130DE0092E0394000C11F4882352F0BB0F40F435
S1130DF0BF2B11F460FF04C06F5F7F4F8F4F9F4F75
S1130E00089557FD9058440F551F59F05F3F71F0F6
S1130E104795880F97FB991F61F09F3F79F087955D
S1130E200895121613061406551FF2CF4695F1DFE6
S1130E3008C0161617061806991FF1CF8695710576
S1130E40610508940895E894BB2766277727CB01AA
S1130E5097F908958ADF08F48FEF08950BD0C0CF77
S1130E60B1DF28F0B6DF18F0952309F0A2CFA7CFA1
S1130E701124EACFC6DFA0F3959FD1F3950F50E07C
S1130E80551F629FF001729FBB27F00DB11D639F38
S1130E90AA27F00DB11DAA1F649F6627B00DA11DDE
S1130EA0661F829F2227B00DA11D621F739FB00D84
S1130EB0A11D621F839FA00D611D221F749F3327F4
S1130EC0A00D611D231F849F600D211D822F762F8D
S1130ED06A2F11249F5750408AF0E1F088234AF08A
S1130EE0EE0FFF1FBB1F661F771F881F91505040D6
S1130EF0A9F79E3F510570F05CCFA6CF5F3FECF39E
S1130F00983EDCF3869577956795B795F795E795C1
S1130F109F5FC1F7FE2B880F911D9695879597F9D2
S1130F200895A1E21A2EAA1BBB1BFD010DC0AA1F26
S1130F30BB1FEE1FFF1FA217B307E407F50720F03E
S1130F40A21BB30BE40BF50B661F771F881F991FB9
S1130F501A9469F760957095809590959B01AC0102
S1130F60BD01CF010895052E97FB16F400940FD010
S1130F7057FD05D0D6DF07FC02D046F408C05095D3
S1130F804095309521953F4F4F4F5F4F0895909571
S1130F908095709561957F4F8F4F9F4F0895A29FC5
S1130FA0B001B39FC001A39F01D0B29F700D811DFA
S1130FB01124911D0895F3DFB7FF0895821B930B4D
S1130FC00895EDDFA59F900DB49F900DA49F800D13
S1130FD0911D11240895BB274A3031F4992322F43A
S1130FE0BDE2909581959F4F01C0BB27FB0155271A
S1130FF0AA27880F991FAA1FA41710F0A41B839572
S11310005051B9F7A05DAA3308F0A95DA1930097E8
S113101079F7B111B1931192CB0100C0DC01FC014D
S1131020672F71917723E1F7329704C07C916D9318
S113103070836291AE17BF07C8F30895F894FFCF89
S113104001000100C8002602626364E56061207744
S11310506869746500206461726B0A00206C6566BF
S10D106074002072696768740A00C6
S9030000FC
